:020000040800F2
:100000002C040020250100088D0100088D01000846
:100010008D0100088D0100088D010008000000001E
:100020000000000000000000000000008D0100083A
:100030008D010008000000008D0100088D010008FE
:100040008D0100088D0100088D010008C90D000810
:100050008D0100088D0100085D080008A508000852
:10006000010A0008C90A0008950B00088D01000864
:100070008D0100088D0100088D0100088D01000828
:100080008D0100088D0100088D01000800000000AE
:10009000000000000000000000000000BD0C00088F
:1000A0008D0100088D0100088D0100088D010008F8
:1000B0008D0100088D0100088D0100088D010008E8
:1000C0008D0100088D0100088D0100088D010008D8
:1000D0008D0100088D0100088D0100088D010008C8
:1000E0008D0100088D0100088D010008000000004E
:1000F0000000000000000000000000000000000000
:1001000000000000000000000000000000000000EF
:100110000000000000000000F107000821080008AE
:100120005FF808F180B582B000AF134B7B60134BD2
:100130003B600BE07B681A683B681A603B6803F120
:1001400004033B607B6803F104037B603A680C4B5B
:100150009A42EFD30B480C494FF000028842B8BFD7
:1001600040F8042BFADB00F015F800F0F7FE07F179
:100170000807BD4680BD00BFB8150008000000207C
:1001800000000020000000203000002080B400AFFC
:10019000FEE700BF80B500AF174B174A126842F068
:1001A00001021A60144A144B5968144B01EA030304
:1001B0005360114A104B1B6823F0847323F480337F
:1001C00013600D4B0C4A126822F480221A600A4B0D
:1001D000094A526822F4FE025A60074B4FF41F028C
:1001E0009A60054B4FF00002DA6200F00BF8044B06
:1001F0004FF000629A6080BD001002400000FFF8DE
:1002000000ED00E080B500AF00F002F880BD00BF57
:1002100080B483B000AF4FF000037B604FF0000369
:100220003B60314B304A126842F480321A602E4BE8
:100230001B6803F400333B607B6803F101037B60C0
:100240003B68002B03D17B68B3F5A06FEFD1264B41
:100250001B6803F40033002B03D04FF001033B6015
:1002600002E04FF000033B603B68012B37D11E4B8F
:100270001D4A52685A601C4B1B4A52685A601A4BFE
:10028000194A52685A60184B174A526822F47C1275
:100290005A60154B144A526842F498125A60124B35
:1002A000114A126842F080721A6000BF0E4B1B6840
:1002B00003F00073002BF9D00B4B0B4A526822F06D
:1002C00003025A60084B084A526842F002025A6020
:1002D00000BF054B5B6803F00C03082BF9D107F155
:1002E0000C07BD4680BC70470010024080B489B046
:1002F00000AF786039604FF00003FB614FF00003FE
:100300003B614FF00003BB614FF00003FB604FF017
:1003100000037B614FF00003BB603B68DB7803F0B8
:100320000F03FB613B68DB7803F01003002B05D063
:100330003B689B78FA6942EA0303FB613B681B88D0
:1003400003F0FF03002B51D07B681B687B614FF0EB
:100350000003BB6144E0BB694FF0010202FA03F302
:10036000FB603B681B881A46FB6802EA03033B619B
:100370003A69FB689A422FD1BB694FEA8303FB605D
:10038000FB684FF00F0202FA03F3BB60BB686FEA31
:1003900003037A6902EA03037B61FB68FA6902FAE4
:1003A00003F37A6942EA03037B613B68DB78282B1D
:1003B00007D1BB694FF0010202FA03F27B685A6170
:1003C0000AE03B68DB78482B06D1BB694FF001029D
:1003D00002FA03F27B681A61BB6903F10103BB6196
:1003E000BB69072BB7D97B687A691A603B681B88A1
:1003F000FF2B56D97B685B687B614FF00003BB61C4
:1004000049E0BB6903F108034FF0010202FA03F36C
:10041000FB603B681B881A46FB6802EA03033B61EA
:100420003A69FB689A4232D1BB694FEA8303FB60A9
:10043000FB684FF00F0202FA03F3BB60BB686FEA80
:1004400003037A6902EA03037B61FB68FA6902FA33
:1004500003F37A6942EA03037B613B68DB78282B6C
:1004600008D1BB6903F108034FF0010202FA03F25D
:100470007B685A613B68DB78482B08D1BB6903F184
:1004800008034FF0010202FA03F27B681A61BB69AC
:1004900003F10103BB61BB69072BB2D97B687A69A1
:1004A0005A6007F12407BD4680BC704780B487B00E
:1004B00000AF78600B46FB704FF000033B614FF0DC
:1004C0000003FB604FF000037B614FF00003BB6053
:1004D0007B68002B03DA354BDB697B6102E0334B31
:1004E0005B687B617B6803F470234FEA1343BB6056
:1004F0007B684FEA03434FEA13433B617B6803F495
:100500004013B3F5401F0AD17B6923F070637B6110
:10051000264B264A526822F070625A6028E07B68B7
:1005200003F48013002B11D0BB684FF0030202FAD2
:1005300003F3FB60FB686FEA03037A6902EA0303D3
:100540007B617B6943F070637B6111E07B684FEAFC
:1005500053534FEA03133A6902FA03F36FEA0303B2
:100560007A6902EA03037B617B6943F070637B6114
:10057000FB78002B0BD07B684FEA53534FEA0313F1
:100580003A6902FA03F37A6942EA03037B617B6802
:10059000002B03DA054B7A69DA6102E0034B7A69D2
:1005A0005A6007F11C07BD4680BC7047000001403F
:1005B00080B483B000AF0346FB71094B97F9072065
:1005C0004FEA5212F97901F01F014FF0010000FAD1
:1005D00001F143F8221007F10C07BD4680BC7047BB
:1005E00000E100E080B400AF044B054A5A60034BC1
:1005F000044A5A60BD4680BC704700BF00200240DC
:1006000023016745AB89EFCD80B400AF044B044AAA
:10061000126942F080021A61BD4680BC704700BF7B
:100620000020024080B400AF064BDB6803F00103FA
:10063000002B14BF00230123DBB21846BD4680BC4B
:10064000704700BF0020024080B582B000AF7860E4
:10065000FFF7C8FF104B104A126942F002021A61FC
:100660000D4B7A685A610C4B0B4A126942F04002FA
:100670001A6100BFFFF7D6FF0346002BFAD0064BE6
:10068000054A126922F002021A61FFF7BDFF07F165
:100690000807BD4680BD00BF0020024080B582B083
:1006A00000AF78603960FFF79DFF1A4B194A126955
:1006B00042F001021A6100BFFFF7B4FF0346002BAE
:1006C000FAD07B683A6892B21A8000BFFFF7AAFF9F
:1006D0000346002BFAD07B6803F102037B603B6882
:1006E0004FEA13433B607B683A6892B21A8000BFBE
:1006F000FFF798FF0346002BFAD0064B054A126914
:1007000022F001021A61FFF77FFF07F10807BD46DB
:1007100080BD00BF0020024080B483B000AF78608D
:100720007B681B68184607F10C07BD4680BC704704
:1007300080B483B000AF4FF000037B6003E07B68C0
:1007400003F101037B607B68B3F5805FF7D107F1AC
:100750000C07BD4680BC704780B487B000AF03462D
:100760003960FB711F4A07F10C0307CA03C31A80E3
:100770001D4B1D4AD26822F47062DA601A4B1A4A85
:10078000D1683A6841EA0202DA60174B164AD26829
:1007900022F07F02DA60144B134AD168FA7907F12C
:1007A0001800821812F80C2C41EA0202DA600F4B92
:1007B0001B68002B03D03B68B3F5007F07D00B4BC1
:1007C0001B68002B09D13B68B3F5806F05D1064B40
:1007D000054AD26842F08002DA6007F11C07BD4684
:1007E00080BC7047AC150008000C014010000020D0
:1007F00080B400AF084B1B6803F10102064B1A607E
:10080000064B064A128A92B222F0010292B21A8272
:10081000BD4680BC704700BF2C0000200010004087
:1008200080B400AF0B4B4FF000021A600A4B0A4A2B
:10083000128A92B222F0010292B21A82064B064A42
:10084000128892B222F0010292B21A80BD4680BC98
:10085000704700BF240000200014004080B500AFA6
:100860000C4B0C4A526942F001025A610A4B1B6858
:10087000002B14BF00220122074B1A60064B1B6895
:10088000002B05D10548FFF747FF0246044B1A60CD
:1008900080BD00BF000401401000002000FC0108E2
:1008A0002C00002080B59EB000AF4B4B4A4A5269E5
:1008B00042F002025A61494B1B68002B40F08680CF
:1008C000464B4FF001021A60454B454A128892B2DE
:1008D00042F0010292B21A80424B1B68002B0CD0EE
:1008E000414B1B68002B14BF002201223E4B1A60B3
:1008F0003E4B4FF000021A6069E03D4B1B68002B35
:1009000014BF002201223A4B1A60394B1B68002B9E
:100910000CD0384B374A128892B242F0010292B2A0
:100920001A80354B4FF000021A6050E0314B314ACB
:10093000128892B222F0010292B21A804FF00003A4
:100940007B6716E07B6F03F1007303F5FE434FEA0C
:1009500083031846FFF7E0FE02467B6F4FEA8303EE
:1009600007F17801CB1843F8782C7B6F03F1010372
:100970007B677B6F1C2BE5D92048FFF765FE1E4B7C
:100980001B681E481946FFF789FE4FF001037B677D
:1009900018E07B6F03F1007303F5FE434FEA830217
:1009A0007B6F03F1FF334FEA830307F17801CB1824
:1009B00053F8783C10461946FFF770FE7B6F03F141
:1009C00001037B677B6F1D2BE3D900E000BF07F1BC
:1009D0007807BD4680BD00BF000401402400002010
:1009E0000014004010000020140000201C00002013
:1009F0000C000020001000402C00002000FC01082A
:100A000080B500AF274B274A526942F003025A6172
:100A1000254B4FF400721A61244B1B68002B3FD109
:100A2000224B4FF001021A60214B214A128892B2E8
:100A300042F0010292B21A801B4B4FF400725A61CD
:100A40001C4B1B68002B0ED01B4B1B68002B0AD0C5
:100A50001A4B1B68022B06D8184B1B6803F10102C6
:100A6000164B1A601DE0134B1B68002B19D1144B59
:100A70001B681C2B15D8124B1B6803F10102104B8D
:100A80001A600F4B1B6803F1007303F5FE434FEA36
:100A900083031846FFF740FE02460A4B1A6000E047
:100AA00000BF80BD00040140001001402400002070
:100AB0000014004010000020140000201800002046
:100AC000200000202C00002080B500AF284B284AD1
:100AD000526942F004025A61264B4FF480721A6147
:100AE000FFF726FE234B4FF480725A61224B1B689E
:100AF000002B3BD1204B4FF001021A601F4B1F4AC5
:100B0000128892B242F0010292B21A801C4B1B680A
:100B1000002B0ED01B4B1B68002B0AD01A4B1B68F6
:100B2000002B06D0184B1B6803F1FF32164B1A60DE
:100B30001DE0134B1B68002B19D1144B1B68002BB5
:100B400015D0124B1B6803F1FF32104B1A600F4B8C
:100B50001B6803F1007303F5FE434FEA8303184655
:100B6000FFF7DAFD02460A4B1A6000E000BF80BDC5
:100B70000004014000100140240000200014004047
:100B80001000002014000020180000202000002089
:100B90002C00002080B400AF404B404A526942F024
:100BA00005025A613E4B1B68002B6FD13C4B4FF046
:100BB00001021A603B4B3B4A128892B242F001029A
:100BC00092B21A80384B1B68002B64D0374B1B68DD
:100BD000002B60D0364B1B68032B5CD801A252F867
:100BE00023F000BFF50B0008130C00084B0C0008A5
:100BF000690C00082F4B5B6803F101022D4B5A6012
:100C00002C4B5B683C2B43D12A4B4FF000025A60BF
:100C100041E0284B5B68312B06D8264B5B6803F11B
:100C20000A02244B5A6036E0224B5968224BA3FB40
:100C300001234FEAD30213464FEA83039B184FEA7E
:100C40004303CA1A1B4B5A6025E01A4B1B6803F179
:100C50000102184B1A60174B1B68182B1AD1154B41
:100C60004FF000021A6016E0124B1B680D2B06D8DD
:100C7000104B1B6803F10A020E4B1A600BE00D4B80
:100C80001B68A3F10E020B4B1A6004E000BF02E0E8
:100C900000BF00E000BFBD4680BC704700040140BB
:100CA0002400002000140040100000201400002048
:100CB0001800002000000020CDCCCCCC80B400AFC8
:100CC0003A4B3A4A526942F006025A61384B1B6865
:100CD000002B67D1364B4FF001021A60354B354A75
:100CE000128892B242F0010292B21A80324B1B6813
:100CF000002B58D0314B1B68002B54D0304B1B6855
:100D0000032B50D801A252F823F000BF1D0D00089C
:100D10003D0D0008610D0008810D0008294B5B683E
:100D2000002B06D0274B5B6803F1FF32254B5A603E
:100D300039E0244B4FF03B025A6034E0214B5B68B2
:100D40000A2B06D91F4B5B68A3F10A021D4B5A60A0
:100D500029E01C4B5B6803F132021A4B5A6022E017
:100D6000184B1B68002B06D0164B1B6803F1FF3293
:100D7000144B1A6017E0134B4FF017021A6012E081
:100D8000104B1B680A2B06D90E4B1B68A3F10A02F5
:100D90000C4B1A6007E00B4B1B6803F10E02094B6A
:100DA0001A6000E000BFBD4680BC704700040140EF
:100DB0002400002000140040100000201400002037
:100DC000180000200000002080B400AF1A4B9B6880
:100DD00003F10102184B9A60174B9B683C2B1FD103
:100DE000154B4FF000029A60134B5B6803F1010250
:100DF000114B5A60104B5B683C2B11D10E4B4FF0DE
:100E000000025A600C4B1B6803F101020A4B1A6086
:100E1000094B1B68182B03D1074B4FF000021A60D7
:100E2000064B064A928892B222F0010292B29A8050
:100E3000BD4680BC704700BF000000200028004075
:100E400080B500AF414B414AD26942F0C052DA61ED
:100E50003F4B3F4A126842F480721A603B4B3B4A58
:100E6000126A42F480321A62384B384A126A22F40B
:100E700080321A62354B354A126A42F401421A62D4
:100E8000324B324A126A42F001021A6203E04FF01A
:100E9000010000F0E1FA4FF0410000F045FB03468D
:100EA000002BF4D02B4B2B4A928D92B242F00302CE
:100EB00092B29A8500BF284B9B889BB203F0200317
:100EC000002BF8D0244B244A928892B242F01002B0
:100ED00092B29A80204B4FF000021A811E4B47F6C7
:100EE000FF729A811C4B1C4A128892B222F00402B3
:100EF00092B21A80184B184A128892B222F002025B
:100F000092B21A80144B144A128892B242F0010233
:100F100092B21A804FF00300FFF74AFB0E4B0E4AC5
:100F2000928892B222F0100292B29A8000BF0A4BCD
:100F30009B889BB203F02003002BF8D0044B044A9B
:100F4000126822F480721A6080BD00BF0010024057
:100F500000700040006C00400028004080B584B064
:100F600000AFA34BA24A126842F400221A604FF06D
:100F700001004FF0010100F093FA9E484FF001018B
:100F8000FFF794FA4FF004004FF0010100F088FAE7
:100F90004FF008004FF0010100F082FA4FF010000E
:100FA0004FF0010100F07CFA4FF001004FF0010119
:100FB00000F076FA904B904A126842F03F021A60B5
:100FC0008D4B8D4A926842F03F029A604FF00600C6
:100FD000FFF7EEFA4FF00700FFF7EAFA4FF00800CC
:100FE000FFF7E6FA4FF00900FFF7E2FA4FF00A00C8
:100FF000FFF7DEFA4FF01700FFF7DAFA40F67F73DB
:101000003B804FF01003FB704FF00203BB703B4678
:101010007A481946FFF76AF94FF440733B804FF066
:101020001003FB704FF00203BB703B467448194637
:10103000FFF75CF9FFF704FF4FF010004FF00101DC
:1010400000F050FA6F4B45F6BF521A856E4B4FF0C9
:1010500000021A606B4B4FF064029A85694B694A33
:10106000928992B242F0010292B29A814FF0360018
:10107000FFF79EFA4FF020004FF0010100F032FA26
:10108000624B45F6BF521A85604B4FF064029A8559
:101090005F4B4FF000021A605C4B5C4A928992B23F
:1010A00042F0010292B29A814FF03700FFF780FAC6
:1010B000584B4FF001021A60574B4FF000021A6074
:1010C000564B4FF000021A604F4B4FF000021A606F
:1010D000534B4FF000021A604FF00103FB60514B7D
:1010E0004FF000021A60504B4FF000021A60494B5B
:1010F0001B68002B00F02D814C4B5A684C4BA3FB16
:1011000002134FEAD3010B464FEA83035B184FEA01
:101110004303D31ABB60404B1B68002B29D0414BC3
:101120001B68002B25D13E4B1B68382B0CD03C4B49
:101130001B6803F101023A4B1A60304B2F4AD26808
:1011400022F47062DA6009E0FB68002B14BF002310
:101150000123FB60324B4FF000021A60FB68002B4A
:101160000ED1BB68DBB218464FF40061FFF7F4FA0A
:1011700006E0BB68DBB218464FF40061FFF7ECFAFB
:10118000FFF7D6FA294B5A68294BA3FB02134FEA03
:10119000D303BB60204B1B68002B4BD0214B1B683B
:1011A000012B47D11E4B1B68382B0CD01C4B1B68E6
:1011B00003F101021A4B1A60104B104AD26822F454
:1011C0007062DA6009E0FB68002B14BF0023012382
:1011D000FB60134B4FF000021A60FB68002B30D10C
:1011E000BB68DBB218464FF48061FFF7B5FA28E020
:1011F000001002400002300000040140000C0140D9
:1012000000100140001000402C000020001400409D
:101210002400002010000020140000200C000020FA
:101220001C000020180000202000002000000020EA
:10123000CDCCCCCCBB68DBB218464FF48061FFF755
:101240008BFAFFF775FA7D4B1A687D4BA3FB0213EF
:101250004FEAD3010B464FEA83035B184FEA43037F
:10126000D31ABB60774B1B68002B29D0764B1B68C9
:10127000022B25D1754B1B68382B0CD0734B1B6888
:1012800003F10102714B1A60714B714AD26822F46A
:101290007062DA6009E0FB68002B14BF00230123B1
:1012A000FB606A4B4FF000021A60FB68002B0ED106
:1012B000BB68DBB218464FF40071FFF74DFA06E049
:1012C000BB68DBB218464FF40071FFF745FAFFF731
:1012D0002FFA5A4B1A685A4BA3FB02134FEAD30357
:1012E000BB60584B1B68002B29D0574B1B68032B46
:1012F00025D1564B1B68382B0CD0544B1B6803F17F
:101300000102524B1A60524B514AD26822F4706269
:10131000DA6009E0FB68002B14BF00230123FB60A7
:101320004A4B4FF000021A60FB68002B0ED1BB68DD
:10133000DBB218464FF48071FFF70EFA06E0BB6887
:10134000DBB218464FF48071FFF706FAFFF7F0F9A9
:10135000CDE6404B1B68BB60BA68394BA3FB021358
:101360004FEAD3010B464FEA83035B184FEA43036E
:10137000D31A7B607B68DBB218464FF40061FFF73D
:10138000EBF9FFF7D5F9BA682D4BA3FB02134FEA2F
:10139000D303BB60BA682A4BA3FB02134FEAD30105
:1013A0000B464FEA83035B184FEA4303D31A7B6073
:1013B0007B68DBB218464FF48061FFF7CDF9FFF789
:1013C000B7F9BA681E4BA3FB02134FEAD303BB6005
:1013D000BA681B4BA3FB02134FEAD3010B464FEA3B
:1013E00083035B184FEA4303D31A7B607B68DBB24D
:1013F00018464FF40071FFF7AFF9FFF799F9BA6893
:101400000F4BA3FB02134FEAD303BB60BA680C4B2C
:10141000A3FB02134FEAD3010B464FEA83035B1889
:101420004FEA4303D31A7B607B68DBB218464FF464
:101430008071FFF791F9FFF77BF958E60000002073
:10144000CDCCCCCC14000020180000201C000020C3
:10145000000C01402C00002080B483B000AF034694
:10146000FB710E4B4FF000021A700C4B4FF0000254
:101470001A70FB79012B02D0042B05D009E0074B31
:101480004FF001021A7004E0044B4FF005021A708D
:1014900000BF07F10C07BD4680BC7047201002401A
:1014A00080B483B000AF78600B46FB70FB78002BF4
:1014B00007D00B4B0A4A91697A6841EA02029A61A5
:1014C00008E0074B064A91697A686FEA020201EA6E
:1014D00002029A6107F10C07BD4680BC704700BF4D
:1014E0000010024080B483B000AF78600B46FB7000
:1014F000FB78002B07D00B4B0A4AD1697A6841EA86
:101500000202DA6108E0074B064AD1697A686FEA9D
:10151000020201EA0202DA6107F10C07BD4680BC53
:10152000704700BF0010024080B487B000AF034690
:10153000FB714FF00003FB604FF000037B614FF045
:101540000003FB74FB794FEA5313DBB2FB60FB68CB
:10155000012B03D1144B1B687B6109E0FB68022B54
:1015600003D1114B1B6A7B6102E00F4B5B6A7B610D
:10157000FB7903F01F03FB60FB687A6922FA03F32F
:1015800003F00103DBB2002B03D04FF00103FB7427
:1015900002E04FF00003FB74FB7C184607F11C07C8
:1015A000BD4680BC704700BF001002403F065B4F45
:0815B000666D7D077F6F0000EE
:0400000508000000EF
:00000001FF
