:020000040800F2
:1000000024040020250100088D0100088D0100084E
:100010008D0100088D0100088D010008000000001E
:100020000000000000000000000000008D0100083A
:100030008D010008000000008D0100088D010008FE
:100040008D0100088D0100088D010008B909000824
:100050008D0100088D010008CD070008FD0700088C
:100060001909000841090008690900088D01000804
:100070008D0100088D0100088D0100088D01000828
:100080008D0100088D0100088D01000800000000AE
:1000900000000000000000000000000091090008BE
:1000A0008D0100088D0100088D0100088D010008F8
:1000B0008D0100088D0100088D0100088D010008E8
:1000C0008D0100088D0100088D0100088D010008D8
:1000D0008D0100088D0100088D0100088D010008C8
:1000E0008D0100088D0100088D010008000000004E
:1000F0000000000000000000000000000000000000
:1001000000000000000000000000000000000000EF
:1001100000000000000000009D0700088D0100089D
:100120005FF808F180B582B000AF134B7B60134BD2
:100130003B600BE07B681A683B681A603B6803F120
:1001400004033B607B6803F104037B603A680C4B5B
:100150009A42EFD30B480C494FF000028842B8BFD7
:1001600040F8042BFADB00F015F800F0EFFC07F183
:100170000807BD4680BD00BF700F000800000020CA
:1001800000000020000000202400002080B400AF08
:10019000FEE700BF80B500AF174B174A126842F068
:1001A00001021A60144A144B5968144B01EA030304
:1001B0005360114A104B1B6823F0847323F480337F
:1001C00013600D4B0C4A126822F480221A600A4B0D
:1001D000094A526822F4FE025A60074B4FF41F028C
:1001E0009A60054B4FF00002DA6200F00BF8044B06
:1001F0004FF000629A6080BD001002400000FFF8DE
:1002000000ED00E080B500AF00F002F880BD00BF57
:1002100080B483B000AF4FF000037B604FF0000369
:100220003B60314B304A126842F480321A602E4BE8
:100230001B6803F400333B607B6803F101037B60C0
:100240003B68002B03D17B68B3F5A06FEFD1264B41
:100250001B6803F40033002B03D04FF001033B6015
:1002600002E04FF000033B603B68012B37D11E4B8F
:100270001D4A52685A601C4B1B4A52685A601A4BFE
:10028000194A52685A60184B174A526822F47C1275
:100290005A60154B144A526842F498125A60124B35
:1002A000114A126842F080721A6000BF0E4B1B6840
:1002B00003F00073002BF9D00B4B0B4A526822F06D
:1002C00003025A60084B084A526842F002025A6020
:1002D00000BF054B5B6803F00C03082BF9D107F155
:1002E0000C07BD4680BC70470010024080B489B046
:1002F00000AF786039604FF00003FB614FF00003FE
:100300003B614FF00003BB614FF00003FB604FF017
:1003100000037B614FF00003BB603B68DB7803F0B8
:100320000F03FB613B68DB7803F01003002B05D063
:100330003B689B78FA6942EA0303FB613B681B88D0
:1003400003F0FF03002B51D07B681B687B614FF0EB
:100350000003BB6144E0BB694FF0010202FA03F302
:10036000FB603B681B881A46FB6802EA03033B619B
:100370003A69FB689A422FD1BB694FEA8303FB605D
:10038000FB684FF00F0202FA03F3BB60BB686FEA31
:1003900003037A6902EA03037B61FB68FA6902FAE4
:1003A00003F37A6942EA03037B613B68DB78282B1D
:1003B00007D1BB694FF0010202FA03F27B685A6170
:1003C0000AE03B68DB78482B06D1BB694FF001029D
:1003D00002FA03F27B681A61BB6903F10103BB6196
:1003E000BB69072BB7D97B687A691A603B681B88A1
:1003F000FF2B56D97B685B687B614FF00003BB61C4
:1004000049E0BB6903F108034FF0010202FA03F36C
:10041000FB603B681B881A46FB6802EA03033B61EA
:100420003A69FB689A4232D1BB694FEA8303FB60A9
:10043000FB684FF00F0202FA03F3BB60BB686FEA80
:1004400003037A6902EA03037B61FB68FA6902FA33
:1004500003F37A6942EA03037B613B68DB78282B6C
:1004600008D1BB6903F108034FF0010202FA03F25D
:100470007B685A613B68DB78482B08D1BB6903F184
:1004800008034FF0010202FA03F27B681A61BB69AC
:1004900003F10103BB61BB69072BB2D97B687A69A1
:1004A0005A6007F12407BD4680BC704780B487B00E
:1004B00000AF78600B46FB704FF000033B614FF0DC
:1004C0000003FB604FF000037B614FF00003BB6053
:1004D0007B68002B03DA354BDB697B6102E0334B31
:1004E0005B687B617B6803F470234FEA1343BB6056
:1004F0007B684FEA03434FEA13433B617B6803F495
:100500004013B3F5401F0AD17B6923F070637B6110
:10051000264B264A526822F070625A6028E07B68B7
:1005200003F48013002B11D0BB684FF0030202FAD2
:1005300003F3FB60FB686FEA03037A6902EA0303D3
:100540007B617B6943F070637B6111E07B684FEAFC
:1005500053534FEA03133A6902FA03F36FEA0303B2
:100560007A6902EA03037B617B6943F070637B6114
:10057000FB78002B0BD07B684FEA53534FEA0313F1
:100580003A6902FA03F37A6942EA03037B617B6802
:10059000002B03DA054B7A69DA6102E0034B7A69D2
:1005A0005A6007F11C07BD4680BC7047000001403F
:1005B00080B483B000AF0346FB71094B97F9072065
:1005C0004FEA5212F97901F01F014FF0010000FAD1
:1005D00001F143F8221007F10C07BD4680BC7047BB
:1005E00000E100E080B400AF044B054A5A60034BC1
:1005F000044A5A60BD4680BC704700BF00200240DC
:1006000023016745AB89EFCD80B400AF044B044AAA
:10061000126942F080021A61BD4680BC704700BF7B
:100620000020024080B400AF064BDB6803F00103FA
:10063000002B14BF00230123DBB21846BD4680BC4B
:10064000704700BF0020024080B582B000AF7860E4
:100650000F4B0F4A126942F002021A610C4B7A6882
:100660005A610B4B0A4A126942F040021A6100BFFC
:10067000FFF7D8FF0346002BFAD0054B044A126956
:1006800022F002021A6107F10807BD4680BD00BFD3
:100690000020024080B582B000AF78603960FFF77B
:1006A000A1FF1A4B194A126942F001021A6100BFF8
:1006B000FFF7B8FF0346002BFAD07B683A6892B286
:1006C0001A8000BFFFF7AEFF0346002BFAD07B680D
:1006D00003F102037B603B684FEA13433B607B6896
:1006E0003A6892B21A8000BFFFF79CFF0346002BC6
:1006F000FAD0064B054A126922F001021A61FFF78F
:1007000083FF07F10807BD4680BD00BF00200240FF
:1007100080B483B000AF78607B681B68184607F12F
:100720000C07BD4680BC704780B483B000AF4FF06B
:1007300000037B6003E07B6803F101037B607B685F
:10074000B3F5805FF7D107F10C07BD4680BC704759
:1007500080B487B000AF0346FB710E4A07F10C036B
:1007600007CA03C31A800C4B0B4AD26822F07F02DF
:10077000DA60094B084AD168FA7907F11800821843
:1007800012F80C2C41EA0202DA6007F11C07BD46A0
:1007900080BC7047640F0008000C014080B400AFBB
:1007A000084B1B6803F10102064B1A60064B064A10
:1007B000128A92B222F0010292B21A82BD4680BC25
:1007C000704700BF200000200010004080B400AF40
:1007D000084B084A526942F001025A61064B1B68F5
:1007E000002B14BF00220122034B1A60BD4680BCBF
:1007F000704700BF000401401000002080B59EB08B
:1008000000AF3E4B3D4A526942F002025A613C4BF6
:100810001B68002B08D03B4B1B68002B14BF002229
:100820000122384B1A6065E0374B1B68002B14BF60
:1008300000220122344B1A60334B1B68002B08D076
:10084000324B324A128892B242F0010292B21A80BE
:1008500050E02E4B2D4A128892B222F0010292B241
:100860001A804FF000037B6716E07B6F03F1007383
:1008700003F5FE434FEA83031846FFF749FF02469C
:100880007B6F4FEA830307F17801CB1843F8782C8C
:100890007B6F03F101037B677B6F1C2BE5D91C4841
:1008A000FFF7D2FE1B4B1B6819481946FFF7F2FEF3
:1008B0004FF001037B6716E07B6F03F1007303F5D4
:1008C000FE434FEA83027B6F4FEA830307F178010F
:1008D000CB1853F8783C10461946FFF7DBFE7B6FC8
:1008E00003F101037B677B6F1D2BE5D9094B4FF0AB
:1008F00000021A6007F17807BD4680BD0004014080
:1009000010000020140000200C0000200010004007
:1009100000FC01082000002080B400AF064B064A0E
:10092000526942F003025A61044B4FF400721A619B
:10093000BD4680BC704700BF00040140001001406C
:1009400080B400AF064B064A526942F004025A6175
:10095000044B4FF400725A61BD4680BC704700BF23
:10096000000401400010014080B400AF064B064A6D
:10097000526942F005025A61044B4FF480721A61C9
:10098000BD4680BC704700BF00040140001001401C
:1009900080B400AF064B064A526942F006025A6123
:1009A000044B4FF480725A61BD4680BC704700BF53
:1009B000000401400010014080B400AF1A4B9B6856
:1009C00003F10102184B9A60174B9B683C2B1FD117
:1009D000154B4FF000029A60134B5B6803F1010264
:1009E000114B5A60104B5B683C2B11D10E4B4FF0F2
:1009F00000025A600C4B1B6803F101020A4B1A609B
:100A0000094B1B68182B03D1074B4FF000021A60EB
:100A1000064B064A928892B222F0010292B29A8064
:100A2000BD4680BC704700BF000000200028004089
:100A300080B500AF414B414AD26942F0C052DA6101
:100A40003F4B3F4A126842F480721A603B4B3B4A6C
:100A5000126A42F480321A62384B384A126A22F41F
:100A600080321A62354B354A126A42F401421A62E8
:100A7000324B324A126A42F001021A6203E04FF02E
:100A8000010000F0C5F94FF0410000F029FA0346DB
:100A9000002BF4D02B4B2B4A928D92B242F00302E2
:100AA00092B29A8500BF284B9B889BB203F020032B
:100AB000002BF8D0244B244A928892B242F01002C4
:100AC00092B29A80204B4FF000021A811E4B47F6DB
:100AD000FF729A811C4B1C4A128892B222F00402C7
:100AE00092B21A80184B184A128892B222F002026F
:100AF00092B21A80144B144A128892B242F0010248
:100B000092B21A804FF00300FFF752FD0E4B0E4ACF
:100B1000928892B222F0100292B29A8000BF0A4BE1
:100B20009B889BB203F02003002BF8D0044B044AAF
:100B3000126822F480721A6080BD00BF001002406B
:100B400000700040006C00400028004080B584B078
:100B500000AFA24BA14A126842F400221A604FF083
:100B600001004FF0010100F077F99D484FF00101BD
:100B7000FFF79CFC4FF004004FF0010100F06CF90E
:100B80004FF008004FF0010100F066F94FF010003F
:100B90004FF0010100F060F94FF001004FF001014A
:100BA00000F05AF98F4B8F4A126842F03F021A60E8
:100BB0008C4B8C4A926842F03F029A604FF00600DC
:100BC000FFF7F6FC4FF00700FFF7F2FC4FF00800CC
:100BD000FFF7EEFC4FF00900FFF7EAFC4FF00A00C8
:100BE000FFF7E6FC4FF01700FFF7E2FC40F67F73DB
:100BF0003B804FF01003FB704FF00203BB703B468D
:100C000079481946FFF772FB4FF440733B804FF071
:100C10001003FB704FF00203BB703B46734819464C
:100C2000FFF764FBFFF704FF4FF010004FF00101E6
:100C300000F034F96E4B45F6BF521A856D4B4FF0FC
:100C400000021A606A4B4FF064029A85684B684A4A
:100C5000928992B242F0010292B29A814FF036002C
:100C6000FFF7A6FC644B4FF001021A60634B4FF094
:100C700000021A60624B4FF000021A605D4B4FF0A9
:100C800000021A604FF00003FB604FF00003BB60EE
:100C90005C4B4FF000021A6000E000BF564B1B682F
:100CA000002BFAD0504B504AD26822F47062DA60BE
:100CB0004D4B4D4AD26842F40062DA60524B5A689A
:100CC000524BA3FB02134FEAD3010B464FEA8303B7
:100CD0005B184FEA4303D31A7B60484B1B68002B19
:100CE0001BD0484B1B68002B17D1FB68B3F5805F06
:100CF00004D0FB6803F10103FB6005E0BB68002B37
:100D000014BF00230123BB60BB68002B0AD17B68A2
:100D1000DBB21846FFF71CFD04E07B68DBB2184627
:100D2000FFF716FDFFF700FD2F4B2F4AD26822F484
:100D30007062DA602C4B2C4AD26842F48062DA602E
:100D4000314B5A68314BA3FB02134FEAD3037B604C
:100D50007B68DBB21846FFF7FBFCFFF7E5FC224B94
:100D6000214AD26822F47062DA601F4B1E4AD268B0
:100D700042F40072DA60244B1A68244BA3FB02137E
:100D80004FEAD3010B464FEA83035B184FEA430354
:100D9000D31A7B607B68DBB21846FFF7D9FCFFF7FC
:100DA000C3FC114B104AD26822F47062DA600E4B19
:100DB0000D4AD26842F48072DA60134B1A68134B02
:100DC000A3FB02134FEAD3037B607B68DBB21846B8
:100DD000FFF7BEFCFFF7A8FC60E700BF0010024071
:100DE0000002300000040140000C014000100140EE
:100DF00000100040200000201000002014000020FF
:100E00000C0000201800002000000020CDCCCCCC2D
:100E100080B483B000AF0346FB710E4B4FF000026D
:100E20001A700C4B4FF000021A70FB79012B02D0A4
:100E3000042B05D009E0074B4FF001021A7004E0C3
:100E4000044B4FF005021A7000BF07F10C07BD46B6
:100E500080BC70472010024080B483B000AF78603F
:100E60000B46FB70FB78002B07D00B4B0A4A9169AD
:100E70007A6841EA02029A6108E0074B064A9169E2
:100E80007A686FEA020201EA02029A6107F10C072E
:100E9000BD4680BC704700BF0010024080B483B0E4
:100EA00000AF78600B46FB70FB78002B07D00B4B34
:100EB0000A4AD1697A6841EA0202DA6108E0074B1E
:100EC000064AD1697A686FEA020201EA0202DA612F
:100ED00007F10C07BD4680BC704700BF0010024000
:100EE00080B487B000AF0346FB714FF00003FB6096
:100EF0004FF000037B614FF00003FB74FB794FEA76
:100F00005313DBB2FB60FB68012B03D1144B1B684E
:100F10007B6109E0FB68022B03D1114B1B6A7B61EB
:100F200002E00F4B5B6A7B61FB7903F01F03FB6000
:100F3000FB687A6922FA03F303F00103DBB2002BAA
:100F400003D04FF00103FB7402E04FF00003FB7489
:100F5000FB7C184607F11C07BD4680BC704700BFEC
:100F6000001002403F065B4F666D7D077F6F0000FB
:0400000508000000EF
:00000001FF
